:020000040000FA
:0400000084EF13F086
:08000800056ED8CF06F0E0CF31
:1000100007F00001E9CF0DF0EACF08F0E1CF09F0D9
:10002000E2CF0AF0D9CF0BF0DACF0CF0F3CF14F017
:10003000F4CF15F0FACF16F000C00FF001C010F0A9
:1000400002C011F003C012F004C013F09DA02CEF09
:1000500000F09EB059EF05F0F0A632EF00F0F0B0DE
:1000600001EF05F0F0A838EF00F0F0B222EF05F054
:100070009DAA3EEF00F09EBA88EF04F00FC000F09A
:1000800010C001F011C002F012C003F013C004F060
:100090000E8E0DC0E9FF08C0EAFF09C0E1FF0AC0EB
:1000A000E2FF0BC0D9FF0CC0DAFF14C0F3FF15C08C
:1000B000F4FF16C0FAFF055007C0E0FF06C0D8FFE6
:1000C00010000DAE03D0F2CF0EF0F29EF76AE40FEF
:1000D000F66E000EF7220900F5500DAE02D00EBEEE
:1000E000F28E120000003BC13DF13AC13CF13DC12E
:1000F00003F001013CC1E9FF3DC1EAFFEF5206E018
:100100003C2BD8B43D2B0001F2D701013A513C5DA4
:10011000006E3B513D59036E00C001F0026E0001BC
:10012000CAEF04F03FC144F13EC143F10101425323
:1001300024E041C103F040C1E9FF41C1EAFFEF52B1
:100140001CE044C103F04351432BD8B4442B456F0A
:1001500003C046F141C103F04051402BD8B4412BBC
:10016000E96E03C0EAFFEFCF47F146C1EAFF45C1A0
:10017000E9FF47C1EFFF4207DAD742530CE044C121
:1001800003F04351432BD8B4442BE96E03C0EAFF7C
:10019000EF6A4207F2D73EC101F03FC102F0000111
:1001A000E1EF04F001014751D8B471D0006E4B511A
:1001B000D8B46DD0002604E3810E002668E204D096
:1001C0007F0E005E64E363E048C14FF14C514F1B6A
:1001D000488F4C8F4A514E03F4CF51F149514D0392
:1001E000F4CF03F0F3CF50F14E03F3505127F45006
:1001F0005023000E03224A514D03F3505127F4506F
:100200005023000E026A0322022248514E03F3508B
:100210005027F4500322000E022248514D03F350A0
:100220000326F4500222000E016A01224A514C03B7
:10023000F3505027F4500322000E022201224951AC
:100240004C03F3500326F4500222000E01224851C1
:100250004C03F3500226F4500122002A01BE05D0BF
:1002600050370336023601360006000E50AF0AD072
:10027000032A02220122015005E1025003E103504A
:1002800001E1002A4FBF018E4FAF019E04D0006AEA
:10029000016A026A036A0001000C8E0E006E4CC1F6
:1002A00001F04BC102F0036A015209E102C001F002
:1002B000026A080E005E015202E1006A08D0D8907E
:1002C00001BE04D0023601360006F9D7019E000CAB
:1002D000800ED8A202D00101541B0101596B5A6B48
:1002E00050C158F15451581B4F51D8B4DFD0576FFB
:1002F000006E5351D8B4E3D0575FD8B483D03EE3F7
:1003000054C15DF15D8F55C15CF156C15BF15A6B13
:10031000D8905D335C335B335A33572FF8D758AFDF
:1003200003D05981E0D0599157915989010EEA6E55
:10033000520EE96EEBD0599958BF0AD057A113D08D
:100340005D335C335B335A33002AD8B4C7D00BD04B
:100350005DBF0CD0D8905A375B375C375D370006ED
:10036000D8B4BCD0F5D7598D6DD0599D50C158F136
:1003700050AF02D05D8FABD05D9FA9D053C157F174
:1003800053C100F04F51575F50C15DF15D8F51C1B6
:100390005CF152C15BF15A6BD8905D335C335B33D7
:1003A0005A33572FF8D758AF03D059839CD059935D
:1003B0005791598B010EEA6E560EE96EA7D0599BE4
:1003C00058BF0AD057A113D05D335C335B335A3327
:1003D000002AD8B483D00BD05DBF0CD0D8905A3748
:1003E0005B375C375D370006D8B478D0F5D7598FC6
:1003F00029D0599F54C158F154AF02D05D8F67D0B6
:100400005D9F65D054C15DF15D8F55C15CF156C1F2
:100410005BF158AF04D05D9F598565D059955A6BF3
:100420005791010EEA6E520EE96E70D058BF1CD083
:1004300050C158F157A106D05D335C335B335A335A
:10044000002A4CE05AAF0BD05B2B09E15C2B07E193
:100450005D2B05E15D335C335B33002A3FE059BD22
:1004600084D759BFC6D71CD0800E5D1B5DAF04D0AA
:100470003AD054C158F10AD050C158F15D5306E149
:100480005C5304E15B5302E1006A21D05DBF08D0F8
:10049000D8905A375B375C375D37002EF7D71ED0C0
:1004A00058AF02D05D8F13D05D9F11D053C100F0C3
:1004B00054C15DF155C15CF156C15BF108D04FC12B
:1004C00000F050C15DF151C15CF152C15BF15DC101
:1004D00001F05CC102F05BC103F034D0006A016A34
:1004E000026A036A2FD05A6B5B1F5C1F5D1F5A1F85
:1004F0005A2B05E15B2B03E15C2B01E15D2B59B12C
:1005000012D759B354D759B589D7B3D7EF505B2712
:1005100005E35C2B03E15D2BD8B45781ED52EF501E
:100520005C2703E35D2BD8B45781ED52EF50EFBE4B
:1005300001D0800A5D27D8B0578159B9FCD659BB84
:100540003ED774D70001000C01014851D8B4A5D0A2
:10055000546F4C51D8B4A1D0545F05E37F0E54279B
:10056000D8B09BD006D0810E545FD8A096D0D8B416
:1005700094D054C100F0016A026A036A536B49C106
:1005800052F1528F4AC151F14BC150F1190E546FC3
:100590004F51505F0DE2010E515F0AE2525F08E2D7
:1005A000535F06E2532B522B512B4F51502728D02B
:1005B0004E51515F12E2010E525F0FE2535F0DE2A6
:1005C000532B522B4E5151274F51502719E3512B8A
:1005D00017E1522B15E1532B13D04D518009525F77
:1005E0000EE2010E535F0BE2532B4D51800952274F
:1005F0004E515127E9E3522BE7E1532BE5D7038016
:10060000542F01D00BD0D890503751375237533731
:10061000D8900336023601365537BAD755A106D0E1
:10062000D890013202320332553302D0000635E051
:1006300055BF1ED0D89050375137523753374F518E
:10064000505F07E2010E515F04E2525F02E2535F26
:100650001AE34E51515F05E2010E525F02E2535F11
:1006600012E34D518009525F03E2010E535F0BE329
:10067000032A09E1022A07E1012A05E1002A0DE027
:1006800001320232033249C154F14D51541B54AF6F
:1006900002D0018E06D0019E04D0006A016A026A6F
:1006A000036A0001000C7F0E01013C6F3D6B3E6B45
:1006B0003F6B406B416B426B436B446B466B4651E7
:1006C000462B036A3A25E96E3B510320EA6EEFCFD1
:1006D00045F145512F0803E2455139080AE24551D9
:1006E0002B0807E045512D0804E045512E08D8A4F9
:1006F000E9D045512D080CE1010E446F4651462BBF
:10070000036A3A25E96E3B510320EA6EEFCF45F1CB
:1007100045512B080AE14651462B036A3A25E96EFA
:100720003B510320EA6EEFCF45F145512F0861E2BE
:10073000455139085EE34A6B496B200E486F820EC3
:10074000476F43C14EF142C14DF141C14CF140C12F
:100750004BF1000127DD00C047F101C048F102C0A4
:1007600049F103C04AF101014C6B45C14BF1000155
:1007700094DDD8924AC152F149C151F148C150F1BA
:1007800047C14FF103C056F102C055F101C054F109
:1007900000C053F19DDD00C04BF101C04CF102C01F
:1007A0004DF103C04EF1D88203C052F102C051F1A5
:1007B00001C050F100C04FF10101566B556B400E66
:1007C000546F840E536F000183DD03C043F102C0F8
:1007D00042F101C041F100C040F101014651462BF8
:1007E000036A3A25E96E3B510320EA6EEFCF45F1EB
:1007F0009CD745512E0866E14651462B036A3A259F
:10080000E96E3B510320EA6EEFCF45F145512F08C9
:1008100059E24551390856E33FC14AF13EC149F119
:100820003DC148F13CC147F14E6B4D6B200E4C6F02
:10083000820E4B6F0001B6DC03C03FF102C03EF1F7
:1008400001C03DF100C03CF1300E0101455D4C6B33
:100850004B6F000122DD03C04BF102C04AF101C021
:1008600049F100C048F13FC14FF13EC14EF13DC1D9
:100870004DF13CC14CF168DED89243C152F142C106
:1008800051F141C150F140C14FF103C056F102C0D6
:1008900055F101C054F100C053F11ADD03C043F11A
:1008A00002C042F101C041F100C040F101014651D6
:1008B000462B036A3A25E96E3B510320EA6EEFCFDF
:1008C00045F1A4D7442D19D04A6B496B800E486F6F
:1008D0007F0E476F43C14EF142C14DF141C14CF112
:1008E00040C14BF100015EDC03C043F102C042F1A4
:1008F00001C041F100C040F1010140C100F041C11F
:1009000001F042C102F043C103F00001E8EF04F03E
:100910009EAAFED7AECF30F030502A081CE1636BA0
:10092000036A310E01013A6F03C03BF1EA6AE96ED6
:10093000F2CF3CF1F29E000E000161EC00F00A00E3
:100940000900F550EE6E0009FBE101013CBFF28E9B
:100950002F8453D000013050230844E16351632BAE
:10096000036A310FE96E000E0320EA6EEF6A31C0B0
:10097000D0F0D051540805E0D151540802E12FAA1B
:100980002F8CD0C0D1F001013B6B310E3A6F0001CA
:1009900073EF00F002C03BF101C03AF1010E01011A
:1009A000015C3C6F000E02583D6F010E3F6F260E3A
:1009B0003E6F416B320E406F3CC142F1000192EF3D
:1009C00000F0010E01013B6F260E3A6F00016BD65D
:1009D00003C0B3F002C0B2F001C0B1F000C0B0F08B
:1009E0002F820AD06351632B036A310FE96E000E28
:1009F0000320EA6E30C0EFFF01019E9A00013EEF36
:100A000000F0F096958283A209D0010E1F26D8B07F
:100A1000202AD8B4212AD8B4222A08D0FF0E1F26B3
:100A2000D8A02026D8A02126D8A0222622C06BF04C
:100A300021C06AF020C069F01FC068F0F086F09015
:100A40003EEF00F0F098958483A414D0010E272681
:100A5000D8B0282AD8B4292AD8B42A2AD051540880
:100A600008E1010E2326D8B0242AD8B4252AD8B408
:100A7000262A13D0FF0E2726D8A02826D8A029265C
:100A8000D8A02A26D051540808E1FF0E2326D8A06A
:100A90002426D8A02526D8A026262AC06FF029C053
:100AA0006EF028C06DF027C06CF0F088F0923EEF39
:100AB00000F02F80C50ECF6E670ECE6E9E903EEF7B
:100AC00000F0DF51B608DF6F036AE0C0E3F0E08FAB
:100AD000D890E033E133E2330332023201320032A4
:100AE000DF2FF6D7E3AF0BD0001E011E021E031E40
:100AF000002AD8B4012AD8B4022AD8B4032A000C98
:100B0000006A016A026A036AE76BE86BE96BEA6BE9
:100B1000E651E511E411E3112CE0200EEB6FD890C3
:100B2000DF37E037E137E237E737E837E937EA37E9
:100B3000E651EA5D08E1E551E95D05E1E451E85D72
:100B400002E1E351E75D0FE3E351E75FE451D8A031
:100B5000E43DE85FE551D8A0E53DE95FE651D8A066
:100B6000E63DEA5FD8800036013602360336EB2FC9
:100B7000D6D7EA6AE70EE96E000CE950D76FD65176
:100B8000D96F22E0186AF2BE188EF29ED5C04AF1E3
:100B9000D4C049F1D3C048F1D2C047F101014E6B36
:100BA0004D6B200E4C6F820E4B6F0001D2EC00F0AB
:100BB00018BEF28E03C0D5F002C0D4F001C0D3F04D
:100BC00000C0D2F0D92FDED7D5C0E2F0D4C0E1F01A
:100BD000D3C0E0F0D2C0DFF074DF03C0D5F002C0B4
:100BE000D4F001C0D3F000C0D2F0D5AF0DD0D707FC
:100BF000D78BD21FD31FD41FD51FD22BD8B4D32B42
:100C0000D8B4D42BD8B4D52B3B0EDE6F9A0EDD6F43
:100C1000CA0EDC6FDB6B0A0ED96FD651D8B4D72B56
:100C2000D5C0E2F0D4C0E1F0D3C0E0F0D2C0DFF034
:100C3000DEC0E6F0DDC0E5F0DCC0E4F0DBC0E3F0F0
:100C40005FDF0150EFCFD2F0ECCFD3F0ECCFD4F098
:100C5000ECCFD5F000520FE1D629D95D0CE0D75189
:100C60000CE00F0BD95D01E03BE2D7BF39D0D7BD17
:100C700004D0200E30D0200ED717D7AB0DD0D79B85
:100C8000D651D8A4D7070050D76F2D0E9EA8FED7F7
:100C9000AD6ED751006ED76BD651D95D0BE10050C8
:100CA000D76F2E0E9EA8FED7AD6ED751006E200EC8
:100CB000D717000E300ED7AB0ED0D79BD651D8A485
:100CC000D7070050D76F2D0E9EA8FED7AD6ED75117
:100CD000006ED76B300E002600509EA8FED7AD6E7A
:100CE000DEC0E2F0DDC0E1F0DCC0E0F0DBC0DFF050
:100CF000E66BE56BE46B0A0EE36F02DF03C0DEF028
:100D000002C0DDF001C0DCF000C0DBF0D92F88D7D5
:100D1000000C7B6B7A6B200E796F800E786F950ECE
:100D2000836FBF0E826F560E816F670E806F7F6B71
:100D30007E6B7D6B800E7C6F936B926B916B906B77
:100D4000976B966B956B946B9B6B9A6B996B986B8F
:100D50009F6B9E6B9D6B9C6B676B666BDBEF06F00E
:100D6000876B866B200E856F800E846F950E8F6F5C
:100D7000BF0E8E6F560E8D6F670E8C6F8B6B8A6BEE
:100D8000896B800E886FA36BA26BA16BA06BA76BA6
:100D9000A66BA56BA46BAB6BAA6BA96BA86BAF6BB7
:100DA000AE6BAD6BAC6B656B646BDCEF06F02FA2CA
:100DB000E8EF0AF0AED7D4D72F862F882F9A226A71
:100DC000216A206A1F6A2A6A296A286A276A6B6B65
:100DD0006A6B696B686B6F6B6E6B6D6B6C6B2F9274
:100DE000D251540A0DE0120AD8B4A8D0040AD8B4DB
:100DF0003BD1100AD8B4CED11E0AD8B4DED2E7D384
:100E0000186AF2BE188EF29E01014A6B496B160EEB
:100E1000486F870E476FD6C04EF1D5C04DF1D4C094
:100E20004CF1D3C04BF10001D2EC00F018BEF28EB1
:100E300000C0D7F001C0D8F002C0D9F003C0DAF08A
:100E4000186AF2BE188EF29E03C04BF102C04AF13E
:100E500001C049F100C048F19A0E01014F6F990E8F
:100E60004E6F7F0E4D6F830E4C6F0001A4EC02F0AD
:100E700018BEF28E03C0E2F002C0E1F001C0E0F063
:100E800000C0DFF01EDE03C073F002C072F001C0CC
:100E900071F000C070F0186AF2BE188EF29E010167
:100EA0004A6B496B160E486F870E476FD6C04EF1DE
:100EB000D5C04DF1D4C04CF1D3C04BF10001D2EC00
:100EC00000F018BEF28E00C0D7F001C0D8F002C00A
:100ED000D9F003C0DAF0186AF2BE188EF29E03C091
:100EE0004BF102C04AF101C049F100C048F1330E94
:100EF00001014F6F4E6F7F0E4D6F830E4C6F0001DF
:100F0000A4EC02F018BEF28E03C0E2F002C0E1F0E1
:100F100001C0E0F000C0DFF0D4DD03C077F002C014
:100F200076F001C075F000C074F0BF6BBE6BBD6B96
:100F3000BC6B266A256A246A236A4AD3186AF2BE01
:100F4000188EF29E01014A6B496B160E486F870E90
:100F5000476FD6C04EF1D5C04DF1D4C04CF1D3C0CF
:100F60004BF10001D2EC00F018BEF28E00C0D7F0B9
:100F700001C0D8F002C0D9F003C0DAF0186AF2BE9E
:100F8000188EF29E03C04BF102C04AF101C049F134
:100F900000C048F19A0E01014F6F990E4E6F7F0EFF
:100FA0004D6F830E4C6F0001A4EC02F018BEF28E60
:100FB00003C0E2F002C0E1F001C0E0F000C0DFF0E9
:100FC00080DD03C073F002C072F001C071F000C098
:100FD00070F0186AF2BE188EF29E01014A6B496BDE
:100FE000160E486F870E476FD6C04EF1D5C04DF133
:100FF000D4C04CF1D3C04BF10001D2EC00F018BECC
:10100000F28E00C0D7F001C0D8F002C0D9F003C002
:10101000DAF0186AF2BE188EF29E03C04BF102C0DD
:101020004AF101C049F100C048F1330E01014F6F90
:101030004E6F7F0E4D6F830E4C6F0001A4EC02F0DB
:1010400018BEF28E03C0E2F002C0E1F001C0E0F091
:1010500000C0DFF036DD03C077F002C076F001C0DB
:1010600075F000C074F0B4D2186AF2BE188EF29E09
:1010700001014A6B496B960E486F870E476FD6C0C9
:101080004EF1D5C04DF1D4C04CF1D3C04BF10001AD
:10109000D2EC00F018BEF28E00C0D7F001C0D8F03C
:1010A00002C0D9F003C0DAF0186AF2BE188EF29EC0
:1010B00003C04BF102C04AF101C049F100C048F140
:1010C0009A0E01014F6F990E4E6F7F0E4D6F830E7A
:1010D0004C6F0001A4EC02F018BEF28E03C0E2F0E7
:1010E00002C0E1F001C0E0F000C0DFF0EADC03C0C4
:1010F00073F002C072F001C071F000C070F0186AA5
:10110000F2BE188EF29E01014A6B496B960E486F33
:10111000870E476FD6C04EF1D5C04DF1D4C04CF10B
:10112000D3C04BF10001D2EC00F018BEF28E00C02B
:10113000D7F001C0D8F002C0D9F003C0DAF0186AC5
:10114000F2BE188EF29E03C04BF102C04AF101C0FC
:1011500049F100C048F1330E01014F6F4E6F7F0E11
:101160004D6F830E4C6F0001A4EC02F018BEF28E9E
:1011700003C0E2F002C0E1F001C0E0F000C0DFF027
:10118000A0DC03C077F002C076F001C075F000C0AB
:1011900074F01ED2D3C0D7F0D451800AD86FD5C016
:1011A000D9F0D6C0DAF0186AF2BE188EF29ED6C018
:1011B0004AF1D5C049F1E8CF48F1D3C047F1DB0E81
:1011C00001014E6F0F0E4D6F490E4C6F800E4B6F2D
:1011D0000001D2EC00F018BEF28E00C0DBF001C0BE
:1011E000DCF002C0DDF003C0DEF0186AF2BE188E3B
:1011F000F29E03C04BF102C04AF101C049F100C0A8
:1012000048F101014F6B4E6B340E4D6F860E4C6FE3
:101210000001A4EC02F018BEF28E03C0B7F002C0C9
:10122000B6F001C0B5F000C0B4F0186AF2BE188E76
:10123000F29EB7C04AF1B6C049F1B5C048F1B4C09A
:1012400047F101014E6B4D6B220E4C6F830E4B6FBD
:101250000001D2EC00F018BEF28E186AF2BE188EB1
:10126000F29E01014A6B496B960E486F870E476FDD
:1012700003C04EF102C04DF101C04CF100C04BF172
:101280000001D2EC00F018BEF28E00C0D7F001C011
:10129000D8F002C0D9F003C0DAF0186AF2BE188E96
:1012A000F29E03C04BF102C04AF101C049F100C0F7
:1012B00048F19A0E01014F6F990E4E6F7F0E4D6FE0
:1012C000830E4C6F0001A4EC02F018BEF28E03C036
:1012D000E2F002C0E1F001C0E0F000C0DFF061EC3C
:1012E00005F003C073F002C072F001C071F000C0DD
:1012F00070F0186AF2BE188EF29EB7C04AF1B6C0FE
:1013000049F1B5C048F1B4C047F101014E6B4D6BD6
:10131000220E4C6F830E4B6F0001D2EC00F018BE12
:10132000F28E186AF2BE188EF29E01014A6B496B6A
:10133000160E486F870E476F03C04EF102C04DF185
:1013400001C04CF100C04BF10001D2EC00F018BE1E
:10135000F28E00C0D7F001C0D8F002C0D9F003C0AF
:10136000DAF0186AF2BE188EF29E03C04BF102C08A
:101370004AF101C049F100C048F1330E01014F6F3D
:101380004E6F7F0E4D6F830E4C6F0001A4EC02F088
:1013900018BEF28E03C0E2F002C0E1F001C0E0F03E
:1013A00000C0DFF061EC05F003C077F002C076F01A
:1013B00001C075F000C074F00BD1186AF2BE188E2F
:1013C000F29ED6C04AF1D5C049F1D4C048F1D3C08D
:1013D00047F1DB0E01014E6F0F0E4D6F490E4C6F42
:1013E000800E4B6F0001D2EC00F018BEF28E00C0F0
:1013F000D7F001C0D8F002C0D9F003C0DAF0186A03
:10140000F2BE188EF29E03C04BF102C04AF101C039
:1014100049F100C048F101014F6B4E6B340E4D6F26
:10142000860E4C6F0001A4EC02F018BEF28E03C0D1
:10143000B7F002C0B6F001C0B5F000C0B4F0186A51
:10144000F2BE188EF29EB7C04AF1B6C049F1B5C0DF
:1014500048F1B4C047F101014E6B4D6B220E4C6F49
:10146000830E4B6F0001D2EC00F018BEF28E186AAA
:10147000F2BE188EF29E01014A6B496B960E486FC0
:10148000870E476F03C04EF102C04DF101C04CF111
:1014900000C04BF10001D2EC00F018BEF28E00C08B
:1014A000D7F001C0D8F002C0D9F003C0DAF0186A52
:1014B000F2BE188EF29E03C04BF102C04AF101C089
:1014C00049F100C048F19A0E01014F6F990E4E6F1D
:1014D0007F0E4D6F830E4C6F0001A4EC02F018BE1E
:1014E000F28E03C0E2F002C0E1F001C0E0F000C003
:1014F000DFF061EC05F003C073F002C072F001C0D0
:1015000071F000C070F0186AF2BE188EF29EB7C07B
:101510004AF1B6C049F1B5C048F1B4C047F1010184
:101520004E6B4D6B220E4C6F830E4B6F0001D2EC55
:1015300000F018BEF28E186AF2BE188EF29E0101FB
:101540004A6B496B160E486F870E476F03C04EF10A
:1015500002C04DF101C04CF100C04BF10001D2ECD2
:1015600000F018BEF28E00C0D7F001C0D8F002C063
:10157000D9F003C0DAF0186AF2BE188EF29E03C0EA
:101580004BF102C04AF101C049F100C048F1330EED
:1015900001014F6F4E6F7F0E4D6F830E4C6F000138
:1015A000A4EC02F018BEF28E03C0E2F002C0E1F03B
:1015B00001C0E0F000C0DFF061EC05F003C077F09F
:1015C00002C076F001C075F000C074F001D000D008
:1015D0008EEF14F0B60E006E036A026A016ADE91A5
:1015E000DDAF0CD0DE81DA1FDB1FDC1FDD1FDA2B45
:1015F00005E1DB2B03E1DC2BD8B4DD2BDA51DB1169
:10160000DC11DD1102E1006A0FD0D89001BE09D0D3
:10161000DA37DB37DC37DD37033602360136002EAA
:10162000F4D7019EDEB1018E000C11C118F1010149
:101630001551181B18AF05D0D894D89011BFD88079
:101640002FD011C118F114C119F11051195F06E022
:1016500018AF26D0D850010AD86E22D015C119F182
:101660001151195F06E018AF1BD0D850010AD86E8F
:1016700017D016C119F11251195F06E018AF10D03A
:10168000D850010AD86E0CD017C119F11351195F47
:1016900006E018AF05D0D850010AD86E01D0D89016
:1016A0000001000C8E0E006E01011051005E11C190
:1016B00002F012C101F0028E005209E0D8900252ED
:1016C00002E1015204E002320132002EF7D711AFDD
:1016D00005D0011E021E012AD8B4022A0001000C06
:1016E0007F0EF66FF76BF86BF96B7E0E0101006FE2
:1016F000800E016F026B036B7A0E046F2A0E056F6A
:10170000AA0E066FA30E076F750E086FB60E096F4F
:10171000090E0A6F9C0E0B6F6F0E0C6F4F0E0D6F44
:10172000B40E0E6F0B0E0F6FEDC013F1ECC012F183
:10173000EBC011F1EAC010F1176B166B156B146B4F
:10174000000173DF03E3EB51800AEB6F186AF2BE0E
:10175000188EF29EEDC04BF1ECC04AF1EBC049F19E
:10176000EAC048F1DB0E01014F6F0F0E4E6F490EBC
:101770004D6F7F0E4C6F0001A4EC02F018BEF28E8C
:1017800003C013F102C012F101C011F100C010F149
:1017900089DF01C0FAF0186AF2BE188EF29EEDC021
:1017A0004BF1ECC04AF1EBC049F1EAC048F1DB0E65
:1017B00001014F6F0F0E4E6F490E4D6F7F0E4C6F34
:1017C0000001A4EC02F018BEF28E00C010F101C0BE
:1017D00011F102C012F103C013F1186AF2BE188EA3
:1017E000F29E01014C6BFAC04BF100014DEC01F08F
:1017F00018BEF28ED882186AF2BE188EF29E13C1FD
:1018000052F112C151F111C150F110C14FF103C099
:1018100056F102C055F101C054F100C053F168EC1B
:1018200001F018BEF28E03C0FFF002C0FEF001C04E
:10183000FDF000C0FCF0030EFA17FA5303E0FA5172
:10184000020823E1186AF2BE188EF29EFFC04AF128
:10185000FEC049F1FDC048F1FCC047F1DB0E0101BB
:101860004E6F0F0E4D6F490E4C6F7F0E4B6F000188
:10187000D2EC00F018BEF28E03C0F5F002C0F4F016
:1018800001C0F3F000C0F2F087D0FA2D43D0D88227
:10189000186AF2BE188EF29E0101526B516B506BAA
:1018A0007F0E4F6FFFC056F1FEC055F1FDC054F1E1
:1018B000FCC053F1000168EC01F018BEF28E00C0CC
:1018C00010F101C011F102C012F103C013F1186A46
:1018D000F2BE188EF29E03C04AF102C049F101C067
:1018E00048F100C047F1DB0E01014E6F0F0E4D6F46
:1018F000490E4C6F7F0E4B6F0001D2EC00F018BE0A
:10190000F28E03C0F5F002C0F4F001C0F3F000C0A5
:10191000F2F042D0D882186AF2BE188EF29EFFC052
:1019200052F1FEC051F1FDC050F1FCC04FF1010178
:10193000566B556B546B7F0E536F000168EC01F0D2
:1019400018BEF28E00C010F101C011F102C012F1F8
:1019500003C013F1186AF2BE188EF29E03C04AF15A
:1019600002C049F101C048F100C047F1DB0E01019E
:101970004E6F0F0E4D6F490E4C6F7F0E4B6F000177
:10198000D2EC00F018BEF28E03C0F5F002C0F4F005
:1019900001C0F3F000C0F2F0F16BF06BEF6B7F0E63
:1019A000EE6F186AF2BE188EF29EF5C04AF1F4C0CE
:1019B00049F1F3C048F1F2C047F1F5C04EF1F4C06F
:1019C0004DF1F3C04CF1F2C04BF1D2EC00F018BE77
:1019D000F28E03C0F5F002C0F4F001C0F3F000C0D5
:1019E000F2F0FB6BFB51030873E3186AF2BE188E2A
:1019F000F29EF9C04AF1F8C049F1F7C048F1F6C0CB
:101A000047F1F5C04EF1F4C04DF1F3C04CF1F2C016
:101A10004BF1D2EC00F018BEF28E03C0F9F002C018
:101A2000F8F001C0F7F000C0F6F0FB51040DF350E0
:101A3000036AE96E010E0324EA6EEFCF10F1ECCFDA
:101A400011F1ECCF12F1ECCF13F1186AF2BE188E3F
:101A5000F29E13C14AF112C149F111C148F110C1FE
:101A600047F1F9C04EF1F8C04DF1F7C04CF1F6C0A6
:101A70004BF1D2EC00F018BEF28EEACF15F1E9CFAF
:101A800014F1D892186AF2BE188EF29EF1C052F18B
:101A9000F0C051F1EFC050F1EEC04FF103C056F16C
:101AA00002C055F101C054F100C053F168EC01F0DF
:101AB00018BEF28E15C1EAFF14C1E9FF03C0F1F0B0
:101AC00002C0F0F001C0EFF000C0EEF0FB2B8AD7AF
:101AD000FA51020802E0FA2D03D0EF51800AEF6FAD
:101AE000EEC000F0EFC001F0F0C002F0F1C003F072
:101AF000000CD882186AF2BE188EF29EE5C052F130
:101B0000E4C051F1E3C050F1E2C04FF1DB0E01013E
:101B1000566F0F0E556F490E546F7F0E536F0001B5
:101B200068EC01F018BEF28E00C0E6F001C0E7F0EC
:101B300002C0E8F003C0E9F003C0EDF002C0ECF031
:101B400001C0EBF000C0EAF0CBDD7EEF0EF0186ACA
:101B5000F2BE188EF29EBBC04AF1BAC049F1B9C0BC
:101B600048F1B8C047F1DB0E01014E6F0F0E4D6F0B
:101B7000490E4C6F800E4B6F0001D2EC00F018BE86
:101B8000F28E00C0DAF001C0DBF002C0DCF003C06E
:101B9000DDF0186AF2BE188EF29E03C04BF102C04F
:101BA0004AF101C049F100C048F101014F6B4E6B91
:101BB000340E4D6F860E4C6F0001A4EC02F018BE7F
:101BC000F28E00C0DEF001C0DFF002C0E0F003C022
:101BD000E1F003C0EDF002C0ECF001C0EBF000C09A
:101BE000EAF07EDD186AF2BE188EF29ED9C04AF184
:101BF000D8C049F1D7C048F1D6C047F103C04EF173
:101C000002C04DF101C04CF100C04BF1D2EC00F02C
:101C100018BEF28EEACFE0F0E9CFDFF0D892186A72
:101C2000F2BE188EF29ECBC052F1CAC051F1C9C0AB
:101C300050F1C8C04FF103C056F102C055F101C0C8
:101C400054F100C053F168EC01F018BEF28EE0C010
:101C5000EAFFDFC0E9FF03C0C3F002C0C2F001C069
:101C6000C1F000C0C0F0186AF2BE188EF29EBBC070
:101C70004AF1BAC049F1B9C048F1B8C047F1DB0E2A
:101C800001014E6F0F0E4D6F490E4C6F800E4B6F62
:101C90000001D2EC00F018BEF28E00C0DAF001C0F4
:101CA000DBF002C0DCF003C0DDF0186AF2BE188E73
:101CB000F29E03C04BF102C04AF101C049F100C0DD
:101CC00048F101014F6B4E6B340E4D6F860E4C6F19
:101CD0000001A4EC02F018BEF28E00C0DEF001C0DC
:101CE000DFF002C0E0F003C0E1F003C0E5F002C0A5
:101CF000E4F001C0E3F000C0E2F0FBD6186AF2BEE7
:101D0000188EF29ED9C04AF1D8C049F1D7C048F127
:101D1000D6C047F103C04EF102C04DF101C04CF1F5
:101D200000C04BF1D2EC00F018BEF28EEACFE0F02A
:101D3000E9CFDFF0D892186AF2BE188EF29ECFC0BB
:101D400052F1CEC051F1CDC050F1CCC04FF103C023
:101D500056F102C055F101C054F100C053F168ECD6
:101D600001F018BEF28EE0C0EAFFDFC0E9FF03C059
:101D7000C7F002C0C6F001C0C5F000C0C4F0C3C0C7
:101D8000CBF0C2C0CAF0C1C0C9F0C0C0C8F0C7C063
:101D9000CFF0C6C0CEF0C5C0CDF0C4C0CCF0000CB2
:101DA000D26BD36BD46BD56BD66BD76BD86BD96B2F
:101DB0006851745D9C6F695175599D6F6A51765970
:101DC0009E6F6B5177599F6F9C5190279D51912326
:101DD0009E5192239F51932398519C5D946F9951EA
:101DE0009D59956F9A519E59966F9B519F59976F28
:101DF0009FC09BF09EC09AF09DC099F09CC098F047
:101E00009FC0DDF09EC0DCF09DC0DBF09CC0DAF02E
:101E1000EAEC0AF0186AF2BE188EF29E7BC04AF114
:101E20007AC049F179C048F178C047F103C04EF15A
:101E300002C04DF101C04CF100C04BF1D2EC00F0FA
:101E400018BEF28E03C013F102C012F101C011F1ED
:101E500000C010F127DC02C0D3F001C0D2F093C063
:101E6000DDF092C0DCF091C0DBF090C0DAF0EAEC7B
:101E70000AF0186AF2BE188EF29E83C04AF182C040
:101E800049F181C048F180C047F103C04EF102C062
:101E90004DF101C04CF100C04BF1D2EC00F018BE86
:101EA000F28E03C013F102C012F101C011F100C0A3
:101EB00010F152EC0BF002C0D5F001C0D4F097C085
:101EC000DDF096C0DCF095C0DBF094C0DAF0EAEC0F
:101ED0000AF0186AF2BE188EF29E7FC04AF17EC0E8
:101EE00049F17DC048F17CC047F103C04EF102C00A
:101EF0004DF101C04CF100C04BF1D2EC00F018BE26
:101F0000F28E03C013F102C012F101C011F100C042
:101F100010F152EC0BF002C0D7F001C0D6F0D45152
:101F2000D225DA6FD551D321DB6FD651DA25D86FA0
:101F3000D751DB21D96FD9BF08D0D95303E1D8518C
:101F4000370803E2D96B370ED86FD9AF0BD0D95110
:101F5000FF0808E303E1D851C80804E3FF0ED96F76
:101F6000C90ED86FD9BF01D009D08482D81D666F41
:101F7000D91D676F662BD8B4672B05D08492D9C062
:101F800067F0D8C066F067C002F066C001F00232A8
:101F9000013202320132023201C0BEFF023202308F
:101FA000300B006EBD50CF0B0010BD6E9FAF12D036
:101FB0009F51FE081CE2FF0A0DE19E51FE0817E248
:101FC000FF0A08E19D51FE0812E2FF0A03E19C515D
:101FD000FC080DE29FBF09D09F5309E19E5307E122
:101FE0009D5305E19C51030802E32F9801D02F88EF
:101FF00025EF12F0D26BD36BD46BD56BD66BD76B4E
:10200000D86BD96B6C51705DAC6F6D517159AD6F00
:102010006E517259AE6F6F517359AF6FAC51A027AB
:10202000AD51A123AE51A223AF51A323A851AC5D62
:10203000A46FA951AD59A56FAA51AE59A66FAB5166
:10204000AF59A76FAFC0ABF0AEC0AAF0ADC0A9F05A
:10205000ACC0A8F0AFC0DDF0AEC0DCF0ADC0DBF0CE
:10206000ACC0DAF0EAEC0AF0186AF2BE188EF29E02
:1020700087C04AF186C049F185C048F184C047F164
:1020800003C04EF102C04DF101C04CF100C04BF154
:10209000D2EC00F018BEF28E03C013F102C012F1B0
:1020A00001C011F100C010F152EC0BF002C0D3F0EE
:1020B00001C0D2F0A3C0DDF0A2C0DCF0A1C0DBF013
:1020C000A0C0DAF0EAEC0AF0186AF2BE188EF29EAE
:1020D0008FC04AF18EC049F18DC048F18CC047F1E4
:1020E00003C04EF102C04DF101C04CF100C04BF1F4
:1020F000D2EC00F018BEF28E03C013F102C012F150
:1021000001C011F100C010F152EC0BF002C0D5F08B
:1021100001C0D4F0A7C0DDF0A6C0DCF0A5C0DBF0A4
:10212000A4C0DAF0EAEC0AF0186AF2BE188EF29E49
:102130008BC04AF18AC049F189C048F188C047F193
:1021400003C04EF102C04DF101C04CF100C04BF193
:10215000D2EC00F018BEF28E03C013F102C012F1EF
:1021600001C011F100C010F152EC0BF002C0D7F029
:1021700001C0D6F0D451D225DA6FD551D321DB6F0F
:10218000D651DA25D86FD751DB21D96FD9BF08D006
:10219000D95303E1D851410803E2D96B410ED86FFE
:1021A000D9AF0BD0D951FF0808E303E1D851BE08DD
:1021B00004E3FF0ED96FBF0ED86FD9BF01D009D08D
:1021C0008484D81D646FD91D656F642BD8B4652BCA
:1021D00005D08494D9C065F0D8C064F065C002F021
:1021E00064C001F00232013202320132023201C017
:1021F000BBFF02320230300B006EBA50CF0B001022
:10220000BA6EAFAF12D0AF51FE081CE2FF0A0DE16B
:10221000AE51FE0817E2FF0A08E1AD51FE0812E2D6
:10222000FF0A03E1AC51FC080DE2AFBF09D0AF5388
:1022300009E1AE5307E1AD5305E1AC51030802E3F8
:102240002F9601D02F8626EF12F02FAC98D026C003
:10225000DDF025C0DCF024C0DBF023C0DAF0EAECCE
:102260000AF0186AF2BE188EF29E9A0E01014A6FA9
:10227000990E496F7F0E486F830E476F03C04EF172
:1022800002C04DF101C04CF100C04BF10001D2EC95
:1022900000F018BEF28E00C0D2F001C0D3F002C030
:1022A000D4F003C0D5F0186AF2BE188EF29E03C0B7
:1022B0004BF102C04AF101C049F100C048F10101EF
:1022C0004F6B4E6B160E4D6F870E4C6F0001A4ECDA
:1022D00002F018BEF28E03C0BFF002C0BEF001C013
:1022E000BDF000C0BCF0BFC0D9F0BEC0D8F0BDC0CA
:1022F000D7F0BCC0D6F02BDC266A256A246A236A94
:10230000BF6BBE6BBD6BBC6B580E9EA8FED7AD6E8F
:10231000890EE96EC3C0D5F0C2C0D4F0C1C0D3F0FD
:10232000C0C0D2F0030ED66FBDEC05F0590E9EA8CA
:10233000FED7AD6E890EE96EC7C0D5F0C6C0D4F029
:10234000C5C0D3F0C4C0D2F0030ED66FBDEC05F00B
:10235000410E9EA8FED7AD6E890EE96EBBC0D5F0CA
:10236000BAC0D4F0B9C0D3F0B8C0D2F0030ED66F63
:10237000BDEC05F0540E9EA8FED7AD6E2F9CD0513B
:10238000540862E126C0DDF025C0DCF024C0DBF09B
:1023900023C0DAF0EAEC0AF0186AF2BE188EF29E58
:1023A0009A0E01014A6F990E496F7F0E486F830E96
:1023B000476F03C04EF102C04DF101C04CF100C0A7
:1023C0004BF10001D2EC00F018BEF28E00C0D2F04A
:1023D00001C0D3F002C0D4F003C0D5F0186AF2BE39
:1023E000188EF29E03C04BF102C04AF101C049F1C0
:1023F00000C048F101014F6B4E6B160E4D6F870EFA
:102400004C6F0001A4EC02F018BEF28E03C02EF057
:1024100002C02DF001C02CF000C02BF0580E9EA879
:10242000FED7AD6E890EE96E2EC0D5F02DC0D4F06A
:102430002CC0D3F02BC0D2F0030ED66FBDEC05F04C
:10244000440E9EA8FED7AD6EABD4D4D52FB65AD1CC
:102450002FB858D12FBA56D1D051520833E1D88273
:10246000186AF2BE188EF29EBBC052F1BAC051F18A
:10247000B9C050F1B8C04FF1B3C056F1B2C055F178
:10248000B1C054F1B0C053F168EC01F018BEF28E47
:1024900003C0BBF002C0BAF001C0B9F000C0B8F090
:1024A000EA6AD00EE96EF2CFD2F0F29E000E61EC35
:1024B00000F00A000900F550EE6E0009FBE1D2BF02
:1024C000F28E7ED0D0514C0833E1D892186AF2BE19
:1024D000188EF29EBBC052F1BAC051F1B9C050F192
:1024E000B8C04FF1B3C056F1B2C055F1B1C054F10C
:1024F000B0C053F168EC01F018BEF28E03C0BBF01F
:1025000002C0BAF001C0B9F000C0B8F0EA6AD00E5B
:10251000E96EF2CFD2F0F29E000E61EC00F00A00FC
:102520000900F550EE6E0009FBE1D2BFF28E48D0F3
:10253000D051460803E0D05154081CE1B3C0D9F093
:10254000B2C0D8F0B1C0D7F0B0C0D6F0A7EC0DF053
:10255000EA6AD00EE96EF2CFD2F0F29E000E61EC84
:1025600000F00A000900F550EE6E0009FBE1D2BF51
:10257000F28E26D0D051420823E1B0C0D2F0B15142
:10258000800AD36FB2C0D4F0B3C0D5F0B3C0D9F0D5
:10259000B2C0D8F0D76FB0C0D6F0A7EC0DF0EA6AA1
:1025A000D00EE96EF2CFD2F0F29E000E61EC00F098
:1025B0000A000900F550EE6E0009FBE1D2BFF28E71
:1025C0000101136B126B340E116F870E106FBBC0BD
:1025D00017F1BAC016F1B9C015F1B8C014F1000175
:1025E00015EC0BF001E221E1D882186AF2BE188ED8
:1025F000F29EBBC052F1BAC051F1B9C050F1B8C09F
:102600004FF10101566B556B340E546F870E536FAB
:10261000000168EC01F018BEF28E03C0BBF002C0EE
:10262000BAF001C0B9F000C0B8F0BBC013F1BAC035
:1026300012F1B9C011F1B8C010F10101176B166B9E
:10264000156B146B000115EC0BF021E3D892186A9E
:10265000F2BE188EF29EBBC052F1BAC051F1B9C0A1
:1026600050F1B8C04FF10101566B556B340E546FE9
:10267000870E536F000168EC01F018BEF28E03C0A4
:10268000BBF002C0BAF001C0B9F000C0B8F0580EFB
:102690009EA8FED7AD6E890EE96EC3C0D5F0C2C04C
:1026A000D4F0C1C0D3F0C0C0D2F0030ED66FBDECE1
:1026B00005F0590E9EA8FED7AD6E890EE96EC7C013
:1026C000D5F0C6C0D4F0C5C0D3F0C4C0D2F0030E5C
:1026D000D66FBDEC05F0410E9EA8FED7AD6E890EFB
:1026E000E96EBBC0D5F0BAC0D4F0B9C0D3F0B8C061
:1026F000D2F0030ED66FBDEC05F04E0E9EA8FED7AD
:10270000AD6E2F8A8FEF14F0F86AD09E0D8EEA6AB4
:10271000E96AB896260EAF6EA60EAC6E900EAB6E42
:10272000C150C00B0F09C16E070EB46E196A1A6A48
:102730001F6A206A216A226A236A246A256A266A35
:10274000276A286A296A2A6A2B6A2C6A2D6A2E6AE5
:102750002F90316A326A336A346A356A366A376A68
:10276000386A396A3A6A3B6A3C6A3D6A3E6A3F6A3D
:10277000406A416A426A436A446A456A466A476AED
:10278000486A496A4A6A4B6A4C6A4D6A4E6A4F6A9D
:10279000506A516A526A536A546A556A566A576A4D
:1027A000586A596A5A6A5B6A5C6A5D6A5E6A5F6AFD
:1027B000606B616B626B636B646B656B666B676BA5
:1027C000686B696B6A6B6B6B6C6B6D6B6E6B6F6B55
:1027D000706B716B726B736B746B756B766B776B05
:1027E000B46BB56BB66BB76B850EB86F340EB96F43
:1027F000BA6BBB6BBC6BBD6BBE6BBF6BC06BC16B95
:10280000C26BC36BC46BC56BC66BC76BC86BC96B44
:10281000CA6BCB6BCC6BCD6BCE6BCF6B2F922F94E7
:102820002F962F982F9A2F9C000E926EFF0E936E6C
:10283000969096929694800E946E0F0E956E84925A
:102840008494C150C00B0F09C16E850ECD6EC50EAC
:10285000CF6E670ECE6E000E0509CA6EFF0ECB6EF0
:1028600094928B9294948B9494948B940C0EBD6E52
:10287000B76A94928B92BA6EBE6ABB6A9D8AF086E2
:10288000F088F19AF1989D80C00EF212580E9EA821
:10289000FED7AD6E890EE96EC3C0D5F0C2C0D4F0CC
:1028A000C1C0D3F0C0C0D2F0030ED66FBDEC05F0AE
:1028B000590E9EA8FED7AD6E890EE96EC7C0D5F041
:1028C000C6C0D4F0C5C0D3F0C4C0D2F0030ED66FDA
:1028D000BDEC05F0410E9EA8FED7AD6E890EE96EE7
:1028E000BBC0D5F0BAC0D4F0B9C0D3F0B8C0D2F0F4
:1028F000030ED66FBDEC05F04E0E9EA8FED7AD6E52
:102900002FA00ED0D0C0D2F0B3C0D6F0B2C0D5F058
:10291000B1C0D4F0B0C0D3F0D7EF06F096D42F906A
:04292000EFD70300EA
:020000040030CA
:0E000000200C191E008381000FC00FE00F407E
:00000001FF
;PIC18F4550
