:020000040000FA
:04000000A8EF00F075
:08000800056ED8CF06F0E0CF31
:1000100007F00001E9CF0DF0EACF08F0E1CF09F0D9
:10002000E2CF0AF0D9CF0BF0DACF0CF0F3CF14F017
:10003000F4CF15F0FACF16F000C00FF001C010F0A9
:1000400002C011F003C012F004C013F09DAA2CEFFF
:1000500000F09EBA5DEF00F00FC000F010C001F09C
:1000600011C002F012C003F013C004F00E8E0DC0D8
:10007000E9FF08C0EAFF09C0E1FF0AC0E2FF0BC0C8
:10008000D9FF0CC0DAFF14C0F3FF15C0F4FF16C08F
:10009000FAFF055007C0E0FF06C0D8FF1000F2CFFE
:1000A0000EF0F29EF76AB80FF66E000EF722090006
:1000B000F5500EBEF28E120000009EAAFED7AECF03
:1000C00018F09E9A2CEF00F08494070EBE6EBD507F
:1000D000CF0B2009BD6E8492070EBB6EBA50CF0BBA
:1000E0002009BA6EEFEF00F08484070EBE6EBD509B
:1000F000CF0B2009BD6E8482070EBB6EBA50CF0BAA
:100100002009BA6EF3EF00F08494070EBE6EBD5066
:10011000CF0B2009BD6E8482070EBB6EBA50CF0B89
:100120002009BA6EF7EF00F08484070EBE6EBD5052
:10013000CF0B2009BD6E8492070EBB6EBA50CF0B59
:100140002009BA6EFBEF00F0BE6ABB6AFFEF00F059
:10015000F86AD09E0D8EEA6AE96AB896260EAF6EEE
:10016000A60EAC6E900EAB6EC150C00B0F09C16EE7
:10017000070EB46EFF0E956E000E926EFF0E936E1C
:10018000800E946E969096929694C150C00B0F0973
:10019000C16E9D8AC00EF212000E0509CA6EFF0ED6
:1001A000CB6E8B928B948B940C0EBD6EB76A8B9238
:1001B000BA6EBE6ABB6AEA6A180EE96EF2CF19F02F
:1001C000F29E000E6CDF0A000900F550EE6E000989
:1001D000FBE119BEF28E1850460801E175D71850A0
:1001E000420801E181D71850520801E18DD718501B
:1001F0004C0801E199D71850530801E1A5D7EBD776
:020200000300F9
:020000040030CA
:0E000000200C181E008381000FC00FE00F407F
:00000001FF
;PIC18F4550
